:040000006F209013CA
:10000400000000000000000090000020D00B002041
:10001400A9BDF9F3900000200000000000000000DA
:10002400900000209000002000000000000000006C
:10003400900000200000000090000020000000005C
:1000440090000020900000209000002090000020EC
:100054009000002090000020EE0C00209000002072
:1000640090000020900000209000002090000020CC
:10007400D00C002090000020900000209000002070
:1000840090000020900000209000002090000020AC
:1000940001A0B717004041119387870398433AC6DC
:1000A40094433247E39CE6FE32454101828041118C
:1000B400814601468145114506C6EF001051B72718
:1000C400004011472383E780B7F700E0938707D008
:1000D400984B6D9B98CB984B5D9B98CB73005010BD
:1000E40001000100B2404101828041118146014674
:1000F4008145114506C6EF00504DB7270040114712
:100104002383E780B717004003C7E70203C6E70469
:1001140083D6870391671366360063E5F600719B07
:1001240013671700F3260080A18A9387819D81CAF3
:10013400F326008094C39443DD9A739006800F10D5
:100144000000B716004093860604930570052380CB
:10015400B600930580FA2380B6000F100000B7158F
:1001640000402382050223800600F3250080944387
:10017400A18ACD8E7390068023AC019C0F100000E1
:10018400F3260080A18A81CAF326008094C3944395
:10019400DD9A739006800F100000B7160040938616
:1001A4000604930570052380B600930580FA238026
:1001B400B6000F100000B71500402387E50223871F
:1001C400C50423800600F32600809843218B558FB5
:1001D4007310078023AC019C0F100000732700806C
:1001E400218B01CB7327008098C398435D9B7310C8
:1001F40007800F1000003717004013070704930609
:1002040070052300D700930680FA2300D7000F104F
:100214000000B716004003C6B60413660602A385A1
:10022400C60423000700F32600809843218B558FD2
:100234007310078023AC019C0F10000037F700E017
:10024400130707D0144B93E6460014CB144BDD9AE6
:1002540014CB730050100100010073270080218B20
:1002640001CB7327008098C398435D9B731007806C
:100274000F1000003717004013070704930670059A
:100284002300D700930680FA2300D7000F10000044
:10029400B716004003C6B6041376F60DA385C6044C
:1002A40023000700732700809C43A18BD98F739090
:1002B400078023AC019C0F100000B24041018280F2
:1002C4000111B7F5070026CA8146AA840A86E1050A
:1002D400194506CE22CC02C023120100EF00F02EF5
:1002E400B717004003C7E70413673700F3270080FC
:1002F400A18B1384819D81CBF32700801CC01C40FB
:10030400DD9B739007800F100000B71700409387A0
:100314000704930670052380D700930680FA238090
:10032400D7000F100000B716004023820602238076
:100334000700F32600801C40A18BD58F73900780A3
:1003440023AC019C0F100000F3270080A18B81CB0C
:10035400F32700801CC01C40DD9B739007800F10A6
:100364000000B717004093870704930670052380A5
:10037400D700930680FA2380D7000F100000B71629
:1003840000402387E60423800700732700801C4075
:10039400A18BD98F7390078023AC019C0F100000B0
:1003A40037F700E0832707D193E747002328F7D0E6
:1003B40083D7060293F7076033E7F400E5779107E4
:1003C4005D8F0100F3270080A18B81CBF327008090
:1003D4001CC01C40DD9B739007800F100000B717F2
:1003E400004093870704930670052380D700930683
:1003F40080FA2380D7000F100000B716004003C610
:10040400F60013660604A387C600B716004003C6A9
:10041400B60413660602A385C604B71600402390EB
:10042400E60223800700732700801C40A18BD98F2C
:100434007390078023AC019C0F100000B7F400E018
:1004440083A704D1DD9B23A8F4D0730050100100CE
:1004540001001305C012EF005004B7F507008146F0
:100464003000E105194502C423160100EF00F01520
:1004740022478247E316F7FCF3270080A18B81CB48
:10048400F32700801CC01C40DD9B739007800F1075
:100494000000B717004093870704130770052380F3
:1004A400E700130780FA2380E7000F100000B71657
:1004B400004003D70602460745832390E6022380C3
:1004C4000700732700801C40A18BD98F739007808D
:1004D40023AC019C0F100000F3270080A18B81CB7B
:1004E400F32700801CC01C40DD9B739007800F1015
:1004F4000000B71700409387070413077005238093
:10050400E700130780FA2380E7000F100000371775
:1005140000408346B70493F6F60DA305D704238061
:100524000700732700801C40A18BD98F739007802C
:1005340023AC019C0F10000051458527F240624412
:10054400D24405618280411126C281460146AA84B3
:100554008145114506C622C4EF0030073717004015
:10056400B717004083C7E7028346E70403568703AF
:10057400116793E636006365E600F19B93E7170085
:1005840073270080218B1384819D01CB7327008006
:1005940018C018405D9B731007800F1000003717B8
:1005A400004013070704130670052300C700130651
:1005B40080FA2300C7000F10000037160040230202
:1005C400060223000700732600801840218B518FF8
:1005D4007310078023AC019C0F1000007327008068
:1005E400218B01CB7327008018C018405D9B7310CA
:1005F40007800F1000003717004013070704130685
:1006040070052300C700130680FA2300C7000F10EB
:100614000000371600402307F6022307D604230000
:100624000700732700801C40A18BD98F739007802B
:1006340023AC019C0F10000013055002B92A37F7B0
:1006440000E0832707D193E747002328F7D0F32757
:100654000080A18B81CBF32700801CC01C40DD9B54
:10066400739007800F100000B717004093870704AA
:10067400130770052380E700130780FA2380E7003F
:100684000F100000371700408346F70093E6060476
:10069400A307D70023800700732700801C40A18B89
:1006A400D98F7390078023AC019C0F100000F327AF
:1006B4000080A18B81CBF32700801CC01C40DD9BF4
:1006C400739007800F100000B7170040938707044A
:1006D400130770052380E700130780FA2380E700DF
:1006E4000F1000006577458FB71600402390E6028F
:1006F40023800700732700801C40A18BD98F73903F
:10070400078023AC019C0F10000037F700E083271B
:1007140007D1DD9B2328F7D073005010010001009E
:1007240081460146814511454D25F3270080A18B63
:1007340081CBF32700801CC01C40DD9B7390078095
:100744000F100000B71700409387070413077005C4
:100754002380E700130780FA2380E7000F100000CE
:1007640037170040FD562316D7028346670493E6E5
:1007740016002303D70423800700732700801C403E
:10078400A18BD98F7390078023AC019C0F100000BC
:10079400B240224492444101828073270080218B1D
:1007A4009387819D01CB7327008098C398435D9BF9
:1007B400731007800F100000371700401307070459
:1007C400930670052300D700930680FA2300D70010
:1007D4000F100000B716004003C6B6041376F60DDA
:1007E400A385C60423000700F32600809843218BC9
:1007F400558F7310078023AC019C0F1000001377F2
:1008040005026300071A371700400347A700118B3E
:100814003DE773270080218B01CB7327008098C3A9
:1008240098435D9B731007800F100000371700403A
:1008340013070704930670052300D700930680FA74
:100844002300D7000F100000B716004003C6A6000F
:10085400136646002385C60023000700F3260080A4
:100864009843218B558F7310078023AC019C0F1084
:1008740000001307004B010001007D176DFF732773
:100884000080218B01CB7327008098C398435D9B24
:10089400731007800F100000371700401307070478
:1008A400930670052300D700930680FA2300D7002F
:1008B4000F100000B71600407D892394A6000100A4
:1008C40001000100010023000700F3260080984383
:1008D400218B558F7310078023AC019C0F100000EF
:1008E40073270080218B01CB7327008098C3984322
:1008F4005D9B731007800F1000003717004013072B
:100904000704930670052300D700930680FA23009A
:10091400D7000F1000000F100000B7260040130688
:100924001005A383C68023000700F32600809843A4
:10093400218B558F7310078023AC019C0F1000008E
:1009440073270080218B01CB7327008098C39843C1
:100954005D9B731007800F100000371700401307CA
:100964000704930670052300D700930680FA23003A
:10097400D7000F100000B716004003C6B604136674
:1009840006F8A385C60423000700732700809C4350
:10099400A18BD98F7390078023AC019C0F100000AA
:1009A4008280137705046305071637170040034751
:1009B400A700418B3DE773270080218B01CB732770
:1009C400008098C398435D9B731007800F1000004C
:1009D4003717004013070704930670052300D70058
:1009E400930680FA2300D7000F100000B7160040CA
:1009F40003C6A600136606012385C600230007006C
:100A0400F32600809843218B558F7310078023AC05
:100A1400019C0F1000001307007D010001007D17E9
:100A24006DFF73270080218B01CB7327008098C34F
:100A340098435D9B731007800F1000003717004028
:100A440013070704930670052300D700930680FA62
:100A54002300D7000F1000009376F50193E60604F7
:100A6400371600402314D6000100010001000100E4
:100A740023000700F32600809843218B558F7310C1
:100A8400078023AC019C0F1000001307600463115E
:100A9400E50473270080218B01CB7327008098C362
:100AA40098435D9B731007800F10000037170040B8
:100AB40013070704930670052300D700930680FAF2
:100AC4002300D7000F100000B7260040094691BD4F
:100AD40073270080218B01CB7327008098C3984330
:100AE4005D9B731007800F10000037170040130739
:100AF4000704930670052300D700930680FA2300A9
:100B0400D7000F100000B72600401306200511BDC2
:100B140073270080218B01CB7327008098C39843EF
:100B24005D9B731007800F100000371700401307F8
:100B34000704930670052300D700930680FA230068
:100B4400D7000F100000B716004003D686001366C6
:100B5400060C2394C600C1BB411181460146814560
:100B6400114506C69D24F3270080A18B9386819DA1
:100B740081CBF32700809CC29C42DD9B739007804D
:100B84000F100000B7170040938707041307700580
:100B94002380E700130780FA2380E7000F1000008A
:100BA4003717004003466704136616002303C7047F
:100BB40023800700732700809C42A18BD98F7390F8
:100BC400078023AC019C0F100000B24041018280D9
:100BD4008146014681451145CD2A73270080218B2A
:100BE4009387819D01CB7327008098C398435D9BB5
:100BF400731007800F100000371700401307070415
:100C0400930670052300D700930680FA2300D700CB
:100C14000F100000B71600407D562396C60223002D
:100C24000700F32600809843218B558F73100780AB
:100C340023AC019C0F10000073270080218B01CB93
:100C44007327008098C398435D9B731007800F102F
:100C540000003717004013070704930670052300AC
:100C6400D700930680FA2300D7000F100000B716B0
:100C7400004003C66604136616002383C6042300DB
:100C84000700732700809C43A18BD98F7390078042
:100C940023AC019C0F10000001A0BD473305F502F1
:100CA40001007D1575FD8280411122C426C206C64D
:100CB400AA84014463179400B2402244924441013F
:100CC400828005041305803E4204C13F4180DDB7A4
:100CD400B7170040130700032388E702854723A2C0
:100CE400F1A473002030411106C6AD2DFDBF03C72A
:100CF40001AA85476318F700979000E0E780C0FEDB
:100D040073002030979000E0E7808070D5BF230304
:100D1400048015472303E48001002302A480828019
:100D240083076480E3CE07FE230304808280830765
:100D34006480E3CE07FE0345448082808307648099
:100D4400E3CE07FE2302A4808280411126C44AC256
:100D54004EC006C61377F50BAD47AA892E89954474
:100D64006306F70019456537653F8D444E85453761
:100D7400FD59FD1463983401B240A24412498249DA
:100D840041018280135509011375F50F453F22096E
:100D9400CDB7011126CC06CEB7040800513715454E
:100DA400BD37713769372AC6A53F32459377150099
:100DB40089EB136515001375F50FF240E2440561E4
:100DC4008280FD14E9FC0145CDBF397126DC4ADA85
:100DD4004ED852D656D45AD25ED006DE62CE66CCF7
:100DE400B7E700E07D5783AA070022C603AA47009D
:100DF40023A0E71823A2E718B717004013077005CC
:100E04002380E704130780FA2380E70483C7470499
:100E1400930B75FFB684E20793FBFB0F8546AA8903
:100E24002E8B328937240040E187015763FA76011B
:100E34006308D5008946130700026313D5000157E0
:100E4400D98F93F7F70FB71C00402382FC04114796
:100E54002303E4801305F00F5D3D094CD135636D28
:100E64007C11B7050700DA9537870700795563F2D7
:100E7400E504B3879500636EF702370B0800A947B2
:100E840033EB65016399F90689E48144513D268574
:100E94000DA0DA850945553D05090345F9FFFD1403
:100EA400050B693D81C49377FB0FFDF7DD3569FDC3
:100EB4007D55B7170040130770052380E704130717
:100EC40080FA2380E70403C74704418B2382E704A5
:100ED400F250B7E700E023A0571123A24711E254D0
:100EE40032445259C259325AA25A125B825B724C32
:100EF400E24C21618280A5476395F906856913094F
:100F0400F00FB3069900B3742B01B6941349F9FF9B
:100F1400B3749900856B33796901416B9387F9FF49
:100F2400B3F7270199E363FC340193D94900C1471E
:100F3400E3E637FF99BF0569C1697D19D9B7130580
:100F4400800D638869011305000263847901130528
:100F54001008CA85DD3B353D21DD4E99B38434410B
:100F6400D9B7DA852D45D533CA94E30099F205093A
:100F74007D3BA30FA9FED5BF9387F9FF93F7F70F26
:100F84006361FC0C83C71C0413073008631FF70458
:100F940037070800636BEB04B3079B00B706100028
:100FA40063F5D704334BEB0089476393F9068980D3
:100FB400D549E38C04ECDA850945413B1109032743
:100FC400C9FF91472320E48003076480E34E07FEB2
:100FD40023033481FD17EDFBFD14110B81C49377BA
:100FE400FB0FE9FF7D3371F5E1B5B717004003C787
:100FF4005704B70708001377070219E3B7870700F8
:101004007955E378FBEA33079B00E3FFE7F855B52E
:101014008547E382F9F2DA852D45053B9389F4FF90
:10102400E38504E6293393F7390091EB83260480A2
:101034000327090093074900E39AE6E43E89CE8436
:10104400F1BFB5476396F9001305900BC93135BD5F
:10105400B1471305B00AE38BF9FE99476391F9048C
:10106400B7050800B365BB002D45C53181448D4BE0
:10107400A149753963967401832704802320F900FC
:101084008504E39834FF8327048013172B016355E9
:1010940007002312F900D5BB2322F900FDB39D47B5
:1010A4006399F90281451305B0044531BD442320F9
:1010B400090023220900FD599D3993F77400CA974A
:1010C40003C70700FD14398D2380A700E39634FF7E
:1010D4006DBBA1476392F9046D398144630D0B0024
:1010E4008D479304C0036308FB0093040005630465
:1010F4008B01930440041375C507E30895D819457B
:10110400393139390545213126850D3909453D31B6
:101114004931E31C05D669BB91476399F90013056E
:101124006006F536F53E130590090DB7E38F09D433
:10113400F154A9BB19CD91CD09CE81473387F50070
:10114400834607003307F50085072300D700E3171C
:10115400F6FE828019C991C909CA910583A7C5FF02
:1011640011057D16232EF5FEC5BF828001C919C65F
:101174002A960505A30FB5FEE31DA6FE82808147CE
:101184003307F5000307070019E33E8582808507CE
:10119400C5BF01112E8626CAAA841315060193051C
:1011A400F004418122CC06CE32C6EF00906C2A8432
:1011B40001C53246A685BD3F2285F2406244D24431
:1011C40005618280854715C18DC105C28147B3067B
:1011D400F5003387F50083C60600034707006398CC
:1011E400E6008507E315F6FE85473E858280814744
:1011F400EDBF9307F6FFBE952A966313C500828060
:10120400FD1583C715000505A30FF5FEFDB7AA87D5
:10121400014581CF09CE3E96850703C7F7FF6317C3
:10122400B700E39BC7FE054582808280014582802A
:101234007971938741AE22D4804306D626D24AD010
:101244004ECE52CC56CA5AC85EC65DCCB7C4C9018C
:10125400014B9389C1AD9384F437175A0000130AE4
:10126400EACC975A0000938A2AD017590000130930
:10127400E9D38357240085E35C44631B0B0023A25A
:10128400F1AE832BC4002285EF00106B5E84B9A8F5
:101294002326FB00FDB783A7090082971C4433076C
:1012A400F5406376F500032749001D8F2A9763E014
:1012B400E4089757000023A107CC83552400034575
:1012C400040097A000E0E78080CC5C405844A1CBA8
:1012D4000C4403264900AE97BE8663E4B70063E47A
:1012E400C700B386C74014C4228B3A8459F0975779
:1012F4000000938767C79C4B09476370F706F9178B
:1013040017570000232AF7C6B250225492540259A8
:10131400F249624AD24A424BB24B4561828063151C
:101324000B0023A2E1AEB1BF2326EB0099BF032734
:101334004A0209CF63EFA7003385A74083A70A01B8
:101344006376F5009757000023A8A7C2228B404478
:1013540071BF03274900BA97C5B79757000023AD5B
:1013640007C05DB7411122C417540000130444C2DE
:101374001C4006C626C24AC091C7829797570000F0
:1013840023A807C09757000083C757DA858B975463
:101394000000938464D995C397570000A38807D8A5
:1013A40083C774001547637AF700052B83C774005D
:1013B400F5178A07A2979C4382971C4491C382978E
:1013C400138901AD03270900175600000346D6B957
:1013D4009757000083C747B993961700BA9683D6E8
:1013E4000600C5CE9757000083C707B863E1C70C52
:1013F40097570000238A07B61C4063950712975736
:10140400000083C7F7D291CF83C7740093F7F70F17
:1014140089EB97570000A38D07D097A001E0E780E0
:1014240020EA9387C1AD9C43638E070E9757000053
:101434009387C7B7DC4317570000232FF7B2CD3B80
:1014440097570000938787AEDC53E9CF1757000006
:10145400130787B1184B9757000083C777AE6363B0
:10146400F70C83C774001547636EF70A975700009B
:1014740083C707D0918BDDE7032609009756000048
:1014840083C696AE63C6D70A2244B2409244024948
:10149400410117C302E067002307850793F7F70F9D
:1014A400975600002382F6ACE3E4C7F225BF860713
:1014B4003E978355070023100700239C01AC9387B4
:1014C40081AE9C4317550000034505AA1317250058
:1014D400BA979C43829783D781AD1757000003477F
:1014E400A7A893C7F7FF7D8D93171700032709005B
:1014F4003E97835707005D8D2310A7009757000080
:1015040083C787A691C7850717570000230EF7A442
:1015140017570000034747A59757000083C7D7A470
:10152400E378F7ECB24022449244024941018280BC
:10153400139717003297035707006DF7850799B77C
:10154400AD6737C70040BD072326F7200F10000002
:1015540097570000938747A1C84F83278726BD6606
:10156400BD0693C7F7FF99836A052326D7205D8DAF
:1015740082804111B7170040985F3AC6945F3247A2
:10158400E39CE6FE3245410182801305F00F828020
:10159400011197570000938767C522CC03A4070C59
:1015A40026CA06CE2AC42EC6854419E40145F24053
:1015B4006244D2440561828083479100034714004A
:1015C400858B6304F7000044CDB719469305A10049
:1015D40013052400C53EE31895FE0545C9BF1387CE
:1015E40041BA1C439306001094C30100010001009A
:1015F40001001C4323A0070083461500034825006F
:10160400A2064208C29603480500C2960348350064
:101614006208C29694D78346550003486500A20623
:101624004208C29603484500C29603487500620802
:10163400C296D4D7834695000348A500A206420863
:10164400C29603488500C2960348B5006208C29654
:1016540094DB8346D5000348E500A2064208C296FF
:101664000348C5000345F500C2966205AA96D4DB7B
:1016740083C6150003C52500A2064205AA9603C524
:101684000500AA9603C535006205AA9694CF83C6C1
:10169400550003C56500A2064205AA9603C5450088
:1016A400AA9603C575006205AA96D4CF83C6950091
:1016B40003C5A500A2064205AA9603C58500AA96FD
:1016C40003C5B5006205AA9694D383C6D50003C5A5
:1016D400E500A2064205AA9603C5C50083C5F50028
:1016E400AA96E205AE96D4D3D443F59AD4C3D44390
:1016F40093E61600D4C3944393E6160094C3BA87C2
:101704009443D842058B59E3984E01452300E600E3
:101714009843184F2183A300E6009843184F418350
:101724002301E6009843184F6183A301E6009C431C
:10173400D84F2302E600D84F2183A302E600D84FF6
:1017440041832303E600D84F6183A303E600985343
:101754002304E60098532183A304E60098534183AD
:101764002305E60098536183A305E600D8532306B6
:10177400E600D8532183A306E600D8534183230708
:10178400E600DC53E183A307F600828001008DBFED
:10179400138781BA1443411122C49C5E4AC006C611
:1017A400998326C2858B3A84138941BAD1C79C5E3A
:1017B400975400009384449793F7F7F99CDE1757E6
:1017C40000000347C79693070008631BF7008327AD
:1017D40009009C4393F70704175700002309F79463
:1017E40083C7040093F707048DC39387C1AD9C435B
:1017F40082979757000023A1A79483C7040093F707
:10180400F70B175700002301F79283C7440093F79F
:1018140007049DE3854717570000A309F7909387B2
:1018240041BB9C43096798C7130700FC9756000007
:10183400238EE68ED844F8D31C40985F1183058B21
:1018440009CB985F3D9B98DF054797560000238F8F
:10185400E68C985F1D83058B11CB985F1377F7F7A0
:1018640098DF8547175700002302F78C8327090068
:10187400D8430583058B19C7D843759BD8C3D84370
:10188400799BD8C3B24022449244024941018280E8
:10189400397106DE16DC1ADA1ED82AD62ED432D2D4
:1018A40036D03ACE3ECC42CA46C872C676C47AC254
:1018B4007EC0F93DF250E2525253C2533255A25502
:1018C400125682567247E2475248C248324EA24EDE
:1018D400124F824F216173002030938741BB9443A0
:1018E400975700009387478403C70700058B11CBE4
:1018F40097570000238C078297570000A38807821C
:10190400828003C71700058B65F7F85271FF83C700
:101914005700DDB7138881BA032708001C5F95833D
:10192400858BD1E709C61C5BBD832300F60085CAFD
:1019340083270800985B460793576701635607009F
:1019440093E707C0C207C18303970600C207C18794
:1019540009C7BA970947B3C7E7022390F60085CDB4
:10196400834715008DCB9746000083C6467C93F6CB
:1019740006041387970089478DCA3A9503470500E3
:10198400854699471376F7066311D6026207618785
:10199400B947634C0700832708009C5FED838D8B58
:1019A40017470000A307F77881473E858280854763
:1019B400EDBF411122C406C6138441BB18402DE972
:1019C400AE877453FDFE3E85B28597470000238E93
:1019D4000774979001E0E780E063938781BA9C43A2
:1019E400B70680009843558F98C3D857719BD8D7B2
:1019F40097470000A38C077297470000A3860772DD
:101A04001C40094798C31440174700001307C771C7
:101A140083472700858B89EB83473700858BD9C3A0
:101A24009747000023840770B2402244410182801A
:101A34008D47631EF500938781BA9C43B7068000E7
:101A44009843558F98C3D857719BD8D76DBF854796
:101A5400E31BF5FA5447F977FD17F58F5CC70F10B0
:101A640000001C40096798C7130700F817460000D8
:101A7400230EE66A138781BA1043184231830D8B13
:101A840011E713076019F8D3D4C7B5BF1842094644
:101A940031830D8B6315C7001307E043EDB71307BC
:101AA400E01BD5B7FC52ADF741B75D71A2C4A6C225
:101AB4002A84130680022800AE849305100886C683
:101AC400CAC04EDE52DCEFF06FEA354597A001E064
:101AD400E780C090138381BA832703009376F41FB1
:101AE400138EC1BB23A40700984B938E41BB370FC1
:101AF400FCFF1367F70398CBF84F130510F8B702F0
:101B04000400137707E0558FF8CF9843F576FD1658
:101B1400758F98C39843B7063300930380251377D2
:101B2400F7E798C3984311497D1F1377F7E71367C5
:101B3400071098C303270E008549930F80021C47A2
:101B4400D58F1CC783A70E001307900D3400B8CBA4
:101B5400014793553700A69583C705001376770090
:101B6400B3D7C740858BE1C38327030083280E00C6
:101B7400239C07042390070603A8C8021378D8FF00
:101B840023A6080383A807001378F70793F808F837
:101B940033E8080123A0070103A84702336858006B
:101BA40023A2070383A80E00014823A2780603DAC0
:101BB40007066307480303A80703038A06001358AC
:101BC400F80062081358884163580A0103A8070300
:101BD4001358F8002380060103D807061378F80F7A
:101BE40003AA480663060A0003DA8705E37F49FB74
:101BF40003A847023378E80123A20703838706007A
:101C0400635CF40003C805003396C9001346F6FF6D
:101C1400337606012380C5003E8663D3A7002A8657
:101C240013158601618505071377F70F8506E312FF
:101C3400F7F3B640264496440649F259625A616164
:101C44008280938641BB9C42D84713161701635583
:101C54000602984713161701635006027D57B8D73A
:101C64001747000013074730584F05071746000071
:101C7400232AE630116798C798470D83058B1DCB3F
:101C8400174700000347674A136717001746000009
:101C9400230DE648130700F8174600002308E6481A
:101CA400214798C7138781BA10435856719B13670D
:101CB400170058D69847058B0DC7174700000347F0
:101CC400B7461367170017460000A30FE6440547FD
:101CD40098C7138781BA10435856719B136717002E
:101CE40058D698470983058B09E798470583058BE0
:101CF40021CF98471746000013060643138581BA7F
:101D04000983058B630307101841184331830D8B36
:101D140075EBAC4B184E93F5050203471700CDCD78
:101D240079EF13077006D8CF03470600136717002F
:101D340017460000230AE63E114798C718415C572E
:101D4400F19B93E717005CD79C42984793163701A1
:101D540063D606029746000083C6C650C18A174759
:101D640000001307A748C5CE034787071367070278
:101D7400974600002388E64E056798C79847931650
:101D8400270163D10602174700000347273A620779
:101D94006187635707000547974600002388E638A4
:101DA400096798C798479316070163D606029746B2
:101DB400000083C6364B858A174700001307074384
:101DC400ADCE034797071367270097460000A38B00
:101DD400E648216798C7828029D785456315B700EF
:101DE4001307B00689B789456315B7001307F006D2
:101DF4001DBF8D456315B700130730072DB71307B3
:101E0400500715B71307600739BF03473600136738
:101E1400170017460000A30AE630094739BF834676
:101E240087070946BD8A6388C600034787078D462E
:101E34003D8BE313D7F4114725BF83469707918A57
:101E4400C9DA034797071367870041B7397106DE7C
:101E540016DC1ADA1ED82AD62ED432D236D03ACE8E
:101E64003ECC42CA46C872C676C47AC27EC0D13B52
:101E7400F250E2525253C2533255A2551256825670
:101E84007247E2475248C248324EA24E124F824F26
:101E9400216173002030174700001307A72A8346E7
:101EA400B7019747000083C7B72C4C4BB697FD8BFF
:101EB40033D7F50097460000A386F628974600001E
:101EC400A388F62A058B15EF174700000347972AC6
:101ED400B3F7E702814601471305000233D6E50054
:101EE400058A1378F70F19CA6397D700974700003C
:101EF400A38A07258280850693F6F60F0507E31F5C
:101F0400A7FC82809747000083C75722D9E79387AD
:101F1400C1AD9C43411122C426C206C6829797478D
:101F24000000938727248047BE846303A406636864
:101F34008504018D135455009747000083C7272259
:101F44006368F404893F98449747000083C72721B6
:101F54009396570036971D8C9746000023A8E620D9
:101F6400E372F4FE2244B240924417450000034554
:101F7400751D8145410117A301E06700838D9747D3
:101F840000009387A702DC433384874022955DB722
:101F9400B240224492444101828082809387C1AD41
:101FA4009C43011122CC4AC806CE26CA4EC682974B
:101FB400974700009387071B804701496301A406E4
:101FC400BE8463668506018D13545500974700004F
:101FD40083C7E7181379F5016360F4049749000097
:101FE4009389C9FC4D3D03A884009746000083C62D
:101FF4000617139756004297158C3A8683A5490015
:10200400636407016364B7003306B7409747000071
:1020140023AEC714E378D4FC160433692401F240D8
:1020240062444A85D2444249B24905618280974755
:1020340000009387A7F7DC4333848740229569B770
:10204400938741BB98438567938707777CD39387AE
:10205400C1BB9C4383A60709139656006358060028
:1020640083A6070913966600634406007453FDF2C1
:10207400828061C1AA870145DDCD8D07C207C18376
:10208400F19BC207C18313074003636BF7021387F5
:1020940041C408431387C1C314436396A602174778
:1020A40000001307A7E8185B014551C74111C20797
:1020B40006C60545DD8D0297B24001454101828087
:1020C400138701C4F9B70357650035E30357450087
:1020D400636FF704B306F7402146637CD6020328F6
:1020E4000500938687001D8FAA9661171746000086
:1020F4000356E6E72392E60023A006012393060095
:1021040014C12312F500130786FF9746000023909D
:10211400E6E62313B5009745000083D545E5B3876C
:10212400F540174700002314F7E421058280084195
:10213400ADB701458280828009CD938741C403A352
:1021440007009387C1C383A8070081469A8763E386
:102154001701828003A807006369F50A6367A80A68
:1021640013878700E367E5FE03D667002167050749
:102174006317E60003C7C1B70507238EE1B6974589
:102184000000938565DE03D6470003D765002393DB
:102194000700329742074183174500002319E5DC05
:1021A40063886702138501C408416303F50203D5FC
:1021B400660019ED83D7460023A0060121073E9649
:1021C40021062392C600974700002392E7DAB687D8
:1021D4009843E30017F9938601C49442E30BD7F6BE
:1021E40083566700BDF683D647000356470018435D
:1021F400A106B2962392D70098C383D76500A1079E
:10220400174700002315F7D68280BE86C28781B7A0
:102214000327851163020712411122C406C68347AE
:10222400C5008345E5042A8493F7C70F2306F50008
:10223400834697000356C70013958601618563F2B0
:10224400C508635B05060345870093F6F607A304F8
:10225400D700054693E627006314C50093E61700EC
:102264002306D4005C4389075CC3A30AB400032596
:1022740004112E864C430905EFE0DFEB832784111C
:1022840003465401D44303D7C700B296118FD4C375
:102294002396E7008947A30DF40003476403974797
:1022A400000083C7C7C96378F7048347C40093E772
:1022B40007012306F40081A093E717002306F40026
:1022C4006DB79376F60F635D050203458700854578
:1022D40013E627006314B50013E617002306C400B1
:1022E400A30AD400A30407008547A30DF4008327A1
:1022F40084119C43DDF3B2402244014541018280B4
:1023040093E717002306F400A30AD400A3040700EC
:10231400032504114C430905EFE0DFE18327841111
:1023240003465401D44303D7C700B296118FD4C3D4
:102334002396E7008D4755BF05458280938741C5A5
:102344009C43411122C406C6858B2A84C5EF41658E
:10235400130525F5975002E0E78060E745C58347FC
:10236400A5002315F50083270412BDE72320A4123A
:102374002322A41285472311F40423200500834754
:10238400640154412316F5000347D4002304E500F7
:102394000547A304E500174700001307E7D8184FC3
:1023A4001385170215811C437D151375F50F9CC207
:1023B4005C43DCC21C479CC65C47DCC61C4B9CCA05
:1023C4005C4BDCCA1C4F9CCE5C4FDCCE19CD938693
:1023D400060213070702C1BF8327441288C3835729
:1023E40024042322A412850779B79747000083D7D2
:1023F40067E0850717470000231EF7DEB24022443A
:10240400410182808347C40023090400054593C722
:1024140047002306F400DDB78347850193F7E70FF0
:10242400C5EF83479501CDEB034625018346C500DF
:1024340009CA8345650317470000034757B063E79C
:10244400E50013F7060151CB014709C6C18A0357BA
:10245400651C81C68356A51C369741C31307C71252
:1024640017450000035505B5B335A70237460F00DD
:10247400411113060624814622C426C206C67D5491
:102484003305A702978002E0E78060E697470000E3
:1024940083C757ABB384A70097470000938707D53A
:1024A40003A787098327070963F387003E8418433A
:1024B40075FB9387C1AD9C43829781476364A400F5
:1024C400B307A440B2402244B3B7970093C71700A0
:1024D40092443E854101828081473E858280938774
:1024E40041BB98437C53FDFF8280797126D206D686
:1024F40022D44AD04ECE52CC56CA5AC85EC683475E
:10250400550303447513AA843E941374F40F93077C
:10251400400263F687001304B4FD1374F40F03AA96
:10252400841383AAC413A38B841222865285D6856E
:10253400978002E0E78060D6058915E503CBD412C5
:1025440001498149337B6403930B50024A865285C7
:10255400D685978002E0E78040D4058915C563914C
:1025640069031374F90F238B8412B25022549254CA
:102574000259F249624AD24A424BB24B45618280C7
:102584008509E20993D989410509E31179FDE1BF80
:102594008327850903560504797193D60701BD8EF7
:1025A400C206C182358E1357764093575640898BA5
:1025B400058B5D8F93573640918B5D8F93571640F3
:1025C400A18B5D8F93171600C18B5D8F9317360017
:1025D40093F707025D8F931756009355860093F780
:1025E40007041E065D8F1376F60F518F93D755405F
:1025F40013D63540118A898BD18F13D67540D18F6C
:1026040013D61540218AD18F13961500418AD18F94
:102614001396350013760602D18F13965500137660
:1026240006049E05D18F93F5F50FCD8FA20745467D
:102634005D8F3307C70222D42A8426D252CC56CACD
:10264400032A8413832AC4135AC806D6369742072A
:10265400418393577740135557400989858BC98F18
:10266400135537401189C98F135517402189C98FD4
:10267400131517004189C98F131537001375050207
:10268400C98F1315570093558700137505041E074A
:10269400C98F1377F70FD98F13D5354013D755400A
:1026A4001189098B498F13D57540498F13D515406E
:1026B4002189498F139515004189498F1395350058
:1026C40013750502498F13955500137505049E056E
:1026D400498F93F5F50F4D8F2207D98FB387C70222
:1026E4004AD04ECE5EC662C4B697C207C18313D722
:1026F400774013D557400989058B498F13D5374047
:102704001189498F13D517402189498F13951700D3
:102714004189498F1395370013750502498F139525
:10272400570093D58700137505049E07498F93F7C7
:10273400F70FD98F13D5354013D755401189098B1D
:10274400498F13D57540498F13D515402189498F79
:10275400139515004189498F1395350013750502AA
:10276400498F13955500137505049E05498F93F5FC
:10277400F50F4D8F2207D98FB387C7021306500276
:102784005285D685B697BD8E93940601C18033F6E3
:10279400C402137BF60F978002E0E78000B005893E
:1027A4000DED8347D41201498149B3849702130C78
:1027B4005002C1804A865285D685978002E0E78020
:1027C400C0AD0589937BF90F11C563863403850970
:1027D40093F9F90F0509E31F89FD230B6413B25024
:1027E400225492540259F249624AD24A424BB24BA1
:1027F400224C456182805E8BCDB7797122D406D696
:1028040083C735002E8423160100A307F10083C774
:102814004500100802C02307F10083C755008A85CC
:1028240002C2A306F10002C402C802CA02CC02CE4C
:10283400EFE0FFDA0347F101834704000145631029
:10284400F7020347E1018347140001456319F700C8
:102854000345D101834724001D8D13351500B25063
:10286400225445618280011197470000938707989D
:1028740022CC03A4870C26CA4AC84EC606CEAA8414
:1028840013092500854915C083C714000347340084
:10289400858B6304F700405CFDB71946930544003B
:1028A4004A85EFE03F92E31835FF2285F240624407
:1028B400D2444249B24905618280411197470000E0
:1028C4009387C79222C403A4870C26C24AC006C6B3
:1028D40093042500054901E82285B240224492442C
:1028E400024941018280A6851305A4023937E30514
:1028F40025FF405CCDB74111974700009387078FB0
:1029040022C403A4870C26C24AC006C69304250029
:10291400054901E82285B24022449244024941011A
:102924008280A6851305A401C93DE30525FF405C0B
:04293400CDB700001B
:102938009711002093818117175100201301016C12
:102948001305400097D5FF1F9385456B1706002098
:10295800130606FE63FAC5008322050023A055006E
:1029680011059105E3EAC5FE17B502001305C5C6B2
:10297800970500209385C5FB17160020130686B01F
:1029880063FAC5008322050023A0550011059105AF
:10299800E3EAC5FE1385819D974500209385C59F71
:1029A8006377B500232005001105E36DB5FEFD42F0
:1029B800739002BC8D42739042809302800873909A
:1029C800023097D2FF1F9382626393E232007390C2
:1029D800523037170040930770052300F704930718
:1029E80080FA2300F7040F1000003C47B70600FAEE
:1029F800E116F58FB70600069506D58F3CC79752A6
:102A080000009382C2DA73901234730020302A8354
:102A180011C62300B3007D16050365FE82802A8354
:102A280009CA83830500230073007D160503850505
:102A38006DFA828015C22A8385466367B500FD5604
:102A48001307F6FF3A93BA958383050023007300B2
:102A58007D163693B6956DFA8280B717004003C786
:102A680077051A0592051377E70F4D8DA38BE704B9
:102A780013653500B7170040A38CA7048280B717E9
:102A8800004003C777051377E70FA38BE704B71751
:102A98000040130700F8A38DE7043D47238CE704A3
:102AA80013075003A38CE7048280B717004093876D
:102AB800A70505472380E70003C70700058B6DFFBF
:102AC800B717004003D5C705520551818280B71753
:102AD800004083C7E704120593F7F70833E7A70018
:102AE800F3270080A18B9386819D81CBF3270080FB
:102AF8009CC29C42DD9B739007800F100000B717A3
:102B0800004093870704130670052380C700130647
:102B180080FA2380C7000F100000371600402307F3
:102B2800E60423800700732700809C42A18BD98F7D
:102B38007390078023AC019C0F1000008280B717A8
:102B4800004083C7E7020D8993F7C70F33E7A70053
:102B5800F3270080A18B9386819D81CBF32700808A
:102B68009CC29C42DD9B739007800F100000B71732
:102B7800004093870704130670052380C7001306D7
:102B880080FA2380C7000F10000037160040230783
:102B9800E60223800700732700809C42A18BD98F0F
:102BA8007390078023AC019C0F10000082804111B4
:102BB8002A838148130F407E130E0019930F400695
:102BC8001318030113580801636E0F15337EC503EC
:102BD800854E0D4FA14FFD4263EBBE167D16B29890
:102BE8007946C20893D808013307C70213D61700DD
:102BF800858BBE0732976146B3F6C602130680700E
:102C0800B386C60236974207D98F37170040130795
:102C1800F7028346070093F60608A307D100034688
:102C2800F1008346070093F60608E314D6FE03472F
:102C3800F10009EB371700401307F7028346F1004C
:102C480063860614F3260080A18A1387819D639EFC
:102C580006140F100000B7160040938606041306EA
:102C680070052380C600130680FA2380C6000F1063
:102C7800000037160040232A1603B715004003C585
:102C8800150313064603136505F8A388A5022380D8
:102C98000600F32500801443A18ACD8E7390068028
:102CA80023AC019C0F100000B71500409385C503A5
:102CB80014428841A98E139526017DF9F3260080D8
:102CC800A18A81CAF326008014C31443DD9A739045
:102CD80006800F100000B7160040938606041306FE
:102CE80070052380C600130680FA2380C6000F10E3
:102CF8000000371600405CDAB287034616031366F5
:102D08000604A388C70223800600F32600801C431C
:102D1800A18BD58F7390078023AC019C0F10000006
:102D2800410182807D13B36EC3031308E016638EDE
:102D38000E00B36EF3031308D01663880E001378E1
:102D48003300133818001308D816C29895BD639637
:102D5800E5030548630D0E0013034006337365024F
:102D6800014863060300137835001338180071080A
:102D7800FD15C205C298C18185B513F315003388C6
:102D88006240E3F7BFFE1308E301DDB7834607009F
:102D980093F60608A307D1000346F100834607000F
:102DA80093F60608E314D6FE51BDF326008014C33B
:102DB8001443DD9A7390068069BD5971DAC886D6C6
:102DC800A2D4A6D2CAD0CECED2CCD6CADEC6E2C44F
:102DD800E6C2EAC06EDE2A8B02D6EF1040037327E4
:102DE8000080218B938C819D11CB7327008023A0B9
:102DF800EC0003A70C005D9B731007800F10000008
:102E0800B716004093860604130770052380E60072
:102E1800130780FA2380E6000F10000037170040E0
:102E28000346F7021376760FA307C7020346F70295
:102E380013668600A307C70223800600F3260080D6
:102E480003A70C00218B558F7310078023AC019CBE
:102E58000F10000073270080218B11CB732700808F
:102E680023A0EC0003A70C005D9B731007800F10D4
:102E78000000B716004093860604130770052380E8
:102E8800E600130780FA2380E6000F1000003717CA
:102E980000400346E7021376C60F2307C70203461E
:102EA800E702136616002307C70223800600F326ED
:102EB800008003A70C00218B558F7310078023AC6B
:102EC800019C0F1000001167130707E8B347E502DC
:102ED800130780C113095002BD66938606A6130620
:102EE80060FB0544331464010D84814481493347F0
:102EF800E5023EC6330927033349D9023306C70220
:102F0800B30720413ECC3307E040B347D602B7466B
:102F18000F00938606243EC8B347D5023304E40263
:102F2800130760553ECA3304E40273270080218BDF
:102F380011CB7327008023A0EC0003A70C005D9B36
:102F4800731007800F100000371D0040130D0D048B
:102F5800930A700523005D01130A80FA23004D01CE
:102F68000F100000B71D004003C63D05938D3D05B9
:102F78001376860F2380CD0003C60D001366160056
:102F88002380CD0023000D00F325008003A60C004C
:102F9800218A4D8E7310068023AC019C0F1000000F
:102FA800916B138CFBFF73260080218A11CA73264C
:102FB800008023A0CC0003A60C005D9A7310068045
:102FC8000F100000930770052300FD0023004D013A
:102FD8000F10000003C60D006175136606022380FA
:102FE800CD003716004083550605B3E57501231853
:102FF800B60483550605C98D2318B60423000D00B1
:10300800F325008003A60C00218A4D8E73100680DC
:1030180023AC019C0F10000003C60D0013760602B6
:103028006306064803C60D00218A6DDE6810EF00AE
:10303800F06173260080218A11CA7326008023A0BC
:10304800CC0003A60C005D9A731006800F100000D8
:1030580023005D0123004D010F10000003C60D0081
:1030680061751376F60D2380CD0003C60D00136637
:1030780006022380CD003716004083550605B3E5C8
:1030880075012318B60483550605C98D2318B6049F
:1030980023000D00F325008003A60C00218A4D8E25
:1030A8007310068023AC019C0F10000003C60D00AE
:1030B800137606026308064203C60D00218A6DFED8
:1030C80097D0FF1FE780A0FC2ACE97D0FF1FE7808C
:1030D80000FCF247E30BF5FE371600408355060562
:1030E8003255B3E575012318B604EF00305803C60E
:1030F8000D00218A6DDE37160040B71500400356D3
:10310800060583C52505B24733768601B385850351
:103118002E961D8E6355C900E2476341F6408945E6
:1031280063F0354173270080218B11CB7327008012
:1031380023A0EC0003A70C005D9B731007800F1001
:103148000000B71600409386060493057005238097
:10315800B600130580FA2380A6000F100000371769
:10316800004003463705130737051376860F2300FB
:10317800C700034607003366CB002300C70023803F
:1031880006007328008003A60C00218A3366060116
:103198007310068023AC019C0F1000000346070043
:1031A8001D8A631A663F73270080218B11CB732712
:1031B800008023A0EC0003A70C005D9B7310078020
:1031C8000F100000B716004093860604930570059B
:1031D8002380B600130580FA2380A6000F10000094
:1031E80037170040034637059168130737051376EC
:1031F800F60D2300C70003460700136606022300E6
:10320800C70037160040035806053368180123180D
:10321800060503580605E1783368180123180605E2
:10322800238006007328008003A60C00218A3366D9
:1032380006017310068023AC019C0F1000000346A2
:10324800070013760602630E0636B716004093860B
:10325800360503C70600218B6DDF6810EF00103FAD
:1032680073270080218B11CB7327008023A0EC00EB
:1032780003A70C005D9B731007800F100000B716A2
:10328800004093860604930570052380B600130555
:1032980080FA2380A6000F1000003717004003466D
:1032A80037059168130737051376F60D2300C70015
:1032B80003460700136606022300C70037160040BE
:1032C8000358060533681801231806050358060530
:1032D800E17833681801231806052380060073284F
:1032E800008003A60C00218A33660601731006804D
:1032F80023AC019C0F10000003460700137606025A
:10330800630D062EB71600409386360503C70600E0
:10331800218B6DFF97D0FF1FE78060D72A8A97D04F
:10332800FF1FE780C0D6E30C45FF371700408356E0
:10333800070511663255D18E2318D704EF001033D4
:10334800B71600409386360503C70600218B6DDF4C
:10335800F3260080A18A1387819D81CAF326008005
:1033680014C31443DD9A739006800F100000B7163B
:10337800004093860604130670052380C6001306D2
:1033880080FA2380C6000F100000371600408345DE
:10339800360593F5F50DA309B604238006007326B8
:1033A80000801443A18AD18E7390068023AC019CBF
:1033B8000F100000B716004083D5060503C6260582
:1033C8009166FD16F58DB306D602D2471306001096
:1033D800B6958566938606FAB3966601B386F602B5
:1033E800B3C6C6021306800C8E06958DBD669386FD
:1033F80006A6B346D4023386C5023346D6028946AA
:103408006359B0220506B346D602371600401306A4
:10341800C6026352D022035606009305F00F1582A8
:10342800369663DEC52C894663F39626F32700801B
:10343800A18B81CBF32700801CC31C43DD9B7390B9
:1034480007800F100000B717004093870704930602
:1034580070052380D700930680FA2380D7000F10C9
:103468000000B716004003D6C602896581154D8E47
:103478002396C60223800700F32600801C43A18BF5
:10348800D58F7390078023AC019C0F100000B650B5
:10349800265496540659F649664AD64A464BB64BC0
:1034A800264C964C064DF25D65618280732600803D
:1034B800218A11CA7326008023A0CC0003A60C0021
:1034C8005D9A731006800F10000023005D01230031
:1034D8004D010F10000003C60D001366060223807D
:1034E800CD0029BE73260080218A11CA7326008068
:1034F80023A0CC0003A60C005D9A731006800F1061
:10350800000023005D0123004D010F10000003C6D9
:103518000D00136606022380CD009DBEE39409C00A
:10352800C247850993151600B3C5F50293F9F90F3B
:1035380009456350C006850533C6A502F3250080FA
:10354800A18991C9F325008023A0BC0083A50C00A4
:10355800DD99739005800F10000023005D012300A2
:103568004D010F100000B715004003D5C5022A967B
:103578002396C50223000D00F325008003A60C0046
:10358800218A4D8E7310068023AC019C0F10000019
:1035980019BCFD1555B773260080218A11CA7326F8
:1035A800008023A0CC0003A60C005D9A731006804F
:1035B8000F1000002380B6002380A6000F10000023
:1035C8004DBE73260080218A11CA7326008023A06D
:1035D800CC0003A60C005D9A731006800F10000043
:1035E8002380B6002380A6000F10000003460700C2
:1035F800136606022300C70025B173260080218ABE
:1036080011CA7326008023A0CC0003A60C005D9A83
:10361800731006800F1000002380B6002380A600D8
:103628000F10000003460700136606022300C700B8
:103638006DB17D16C9BBE1C603560600B305D0407F
:103648001582635EB60A894663F39604F327008001
:10365800A18B81CBF32700801CC31C43DD9B739097
:1036680007800F100000B7170040938707049306E0
:1036780070052380D700930680FA2380D7000F10A7
:103688000000B716004003D6C6027D8AD5B3F326DC
:103698000080A18A81CAF326008014C31443DD9AEE
:1036A800739006800F100000B7160040938606043A
:1036B800130670052380C600130680FA2380C6000F
:1036C8000F100000B715004003D6C50205650115A7
:1036D8001376F60F498E2396C50223800600F3263B
:1036E80000801843218B558F7310078023AC019CF1
:1036F8000F100000850493F4F40F6FF01F83F32775
:103708000080A18B81CBF32700801CC31C43DD9B69
:10371800739007800F100000B717004093870704C5
:10372800130670052380C700130680FA2380C7009C
:103738000F100000371600408355C6029606AE9655
:103748002316D60205BB914763E6B70697870200A2
:10375800938747588A05BE9598413E97B71700400A
:103768009387470B028798431345F5FF698F98C3E2
:10377800B71700409387070B9843698F98C3B7170B
:1037880000409387070A9843798D88C382809443C1
:103798001347F5FFF98E94C3B71700409387070BBB
:1037A8009443C98E94C3B71700409387070A94437C
:1037B800758F98C382809843498F98C3B717004084
:1037C8009387070B98431345F5FF45BF9443134769
:1037D800F5FF758F98C3B71700409387070A98437A
:1037E800498FC1BF9843498FF5B7914763E6B7063C
:1037F800978702009387474F8A05BE9598413E9761
:10380800B71700409387470D028798431345F5FF84
:10381800698F98C3B71700409387070D9843698F3E
:1038280098C3B71700409387070C9843798D88C3CE
:10383800828094431347F5FFF98E94C3B71700406D
:103848009387070D9443C98E94C3B7170040938795
:10385800070C9443758F98C382809843498F98C307
:10386800B71700409387070D98431345F5FF45BFE9
:1038780094431347F5FF758F98C3B7170040938794
:10388800070C9843498FC1BF9843498FF5B7131761
:10389800050189474183638FF50463E6B702B717CB
:1038A8000040938747091346F7FF9DE983D6070031
:1038B800F18E2390D700B71700409387C70A944327
:1038C800C98E94C321A08D47638EF502B7170040B7
:1038D800239EE70883D60709558F2398E708828037
:1038E80083D60700F18E2390D700B717004093873F
:1038F800870AF1B7B717004083D64709D98E239AAC
:10390800D70855BFB717004083D64709D98E239AE1
:10391800D708E1BFB757004003D7078093870780D0
:1039280011C5136717002390E7008280C166F91656
:10393800758FD5BFB757004003D707809387078097
:1039480011C5136707102390E7008280C16693862C
:10395800F6EF758FCDBFB757004003D70780938721
:10396800078011C5136707202390E7008280C1668E
:103978009386F6DF758FCDBFB75700402398A78091
:1039880082809377E50F99C19367150037570040F8
:103998002318F7808280B757004003D707809387A2
:1039A800078011C5E176558F2390E700828046078E
:1039B8004583DDBF797122D43754004026D2AA84CA
:1039C8000355048061782ECE3365050132CC36CAA2
:1039D8003AC83EC606D62310A48001456D3F052986
:1039E800035844804163130303FC337868002312AF
:1039F800048137480F00130808243358050303537C
:103A08004480F245B2474247D246624633630301D7
:103A1800231264808358048041637913B3F86800E3
:103A280023101481E1689388086A63E2B808860560
:103A3800B355B502114613D525001375F53F01C5D9
:103A480005667D166D8E05089305F00363F3050181
:103A58002E88B755004023900583B7550040239E14
:103A6800C5802E8683D505804165130555BF93E52E
:103A780015002310B68083550680B2502254E98D74
:103A88002310B68083550680D58DC58D2310B6804A
:103A9800B756004003D686802394068003D68680D6
:103AA80092545D8E598E2394C680456182808568C4
:103AB80015EA0D463386C502FD183356C502B3759F
:103AC80016012E86C205C18191E10546E1754D8E2C
:103AD8009305C0123308B8029305803E3358B802E4
:103AE800050885BF6546B385C502FD183356B5027E
:103AF8009165337616014D8ED1BFB757004003D775
:103B0800478183D78781C207D98FE98FA207A1830D
:103B18003385A740133515008280411102C4B75779
:103B2800004002C6938707803EC69357C5013EC42E
:103B3800224722059357850019CB324751073AC6C9
:103B48003247084341017D8D3335A00082803247DA
:103B5800C1836107EDB7411122C4B717004006C6FB
:103B680003C7270283D707021384819D3DE593F796
:103B7800F79FF3260080A18A81CAF326008014C02B
:103B88001440DD9A739006800F100000B7160040AD
:103B980093860604130670052380C600130680FA70
:103BA8002380C6000F100000371600401377F70770
:103BB8002301E6022310F602238006007327008003
:103BC8001C40A18BD98F7390078023AC019C0F10E8
:103BD8000000B240224441018280136707F893E74E
:103BE8000740F3260080A18A81CAF326008014C00A
:103BF8001440DD9A739006800F100000B71600403D
:103C080093860604130670052380C600130680FAFF
:103C18002380C6000F100000371600402301E6027B
:103C28002310F60223800600732700801C40A18B16
:103C3800D98F7390078023AC019C0F100000294591
:103C480097D0FF1FE7802005F3270080A18B81CB49
:103C5800F32700801CC01C40DD9B739007800F1069
:103C68000000B717004093870704130770052380E7
:103C7800E700130780FA2380E7000F1000003717CA
:103C880000408356070293E606202310D7022380BC
:103C980007002DB79387819D3DE173270080218B15
:103CA80001CB7327008098C398435D9B73100780EE
:103CB8000F1000003717004013070704930670051C
:103CC8002300D700930680FA2300D7000F100000C6
:103CD800B716004003C6E60093C5F5FF6D8E23872F
:103CE800C60023000700732700809C43A18BD98F4F
:103CF8007390078023AC019C0F100000828093060C
:103D0800F6FFB336D00073270080218B01CB7327D1
:103D1800008098C398435D9B731007800F100000C4
:103D28003717004013070704130670052300C70060
:103D3800130680FA2300C7000F1000003715004053
:103D48000346E5004D8E136606042307C5002300CD
:103D58000700732600809843218B518F73100780CA
:103D680023AC019C0F10000073270080218B01CB2E
:103D78007327008098C398435D9B731007800F10CA
:103D880000003717004013070704130670052300C7
:103D9800C700130680FA2300C7000F10000037166B
:103DA80000408345F60093F5C50FA307B60023002E
:103DB8000700732600809843218B518F731007806A
:103DC80023AC019C0F10000073270080218B01CBCE
:103DD8007327008098C398435D9B731007800F106A
:103DE8000000371700401307070413067005230067
:103DF800C700130680FA2300C7000F10000037160B
:103E080000408345F600CD8EA307D600D9BDB7176D
:103E1800004003D787009317070113770704C1836E
:103E280009EBFD8B3755E801130505803345F5028D
:103E38008280216513F7070C93060004130505D04B
:103E4800E318D7FEFD8B37459C1CF9BF37E700E028
:103E58001C435443A183E206D58F1CC1FD57232080
:103E6800F7182322F7180F10000082801317850017
:103E7800B7E700E023A0E710618123A2A7108280A2
:103E8800B7F700E08847CC47828017F7FF1F130772
:103E9800E741AA87084397460020938626F6AA9703
:103EA80063EAF600972600209386064F63E4D7005E
:103EB8001CC382807D55828037870040230007001D
:103EC8009307C0FC2306F700A306F70083A6819E8C
:103ED800C9473A862318D70083A6419E231AD700DC
:103EE80083A6019E231CD70083A6C19D231ED7004D
:103EF80089462301D7022303F7022305F702230784
:103F0800F7022309D702A3010700930790022300B1
:103F1800F700B717004003D7A7011367070C239DC5
:103F2800E7007D572303E600130710F8A300E60017
:103F38001D472301E6008280B78700402382A7023D
:103F480003C767021377C70F2383E702828083A71B
:103F5800019F91C7411106C68297B24041016F3057
:103F680060232D452DE7DC41011122CC06CE03C785
:103F7800070083C717003284A207D98F0D6713077C
:103F880097A16396E70236C6D93783C76180B246E0
:103F98006375F5002383A180AA8705472390E6006F
:103FA8002300F4000145F2406244056182800D67F8
:103FB800130787902945E398E7FECC4509462390E7
:103FC800C600228597D0FF1FE7808016E1BF828058
:103FD800DC41411122C406C626C203C8070083C7B4
:103FE80017002944A207B3E707010D6813082890B2
:103FF800639607038547B284EFC010022A8419ED3F
:1040080003A7419F01CF83C7140083C60400A207FA
:10401800D58F93B71700138517000297B2402285F2
:10402800224492444101828083474500858BBDC369
:10403800011122CC2A84035525009385C1C706CED9
:10404800EFC04078058939C10355240001478146EE
:104058000546ED45EFC060312AC60DC997F7FF1F29
:1040680083D7679001462C002314F1008547231558
:10407800F10083C761802300F50003552400EFD0C9
:10408800405109C5ED452800EFC0E045F2406244C3
:10409800056182808280416541119385C1C77D1584
:1040A80006C6EFE0803EB24097F6FF1F938646882B
:1040B8004146954517F5FF1F1305458841016FE0F7
:1040C800E03123AAA19E828085476316F5028347C3
:1040D80006002386F19E03C761806370F7024111D1
:1040E80017050000130585F406C6EF004174B240B9
:1040F80001454101828009458280014582808947C6
:104108006303F50263E9A70001ED83C7618023809B
:10411800F500014582800D47630EE5003E858280EB
:1041280083C7C19EEDB797F7FF1F83D7C781239039
:10413800F500C5B797F7FF1F83D787172392F500B8
:1041480097F7FF1F83D727822390F50097F7FF1F64
:1041580083D767822391F50085472383F50055BFF0
:10416800411106C6ED3383C76180637AF500238366
:10417800A18017050000130565EBEF00416BB24005
:1041880001454101828041677917630CE5024111BD
:1041980022C42E8706C685452A84631AB70022855D
:1041A8002244B2409385C1C741016FE0002E894780
:1041B8006315F700EF0021627DD1B240224441012E
:1041C800828082803285D041411106C6834506002F
:1041D800034616000D681308A8A222064D8E9315F3
:1041E8000601C1856349B8020D68130828A26359FE
:1041F800B802F5759385C55D2E96420641829945AC
:1042080063E4C50297850200938545AF0A062E969A
:1042180010422E9602860D66130606A56385C51004
:1042280023900600A94525A01D46B2856361E602D4
:104238002146198E63F3C7003E862390C6009385F6
:10424800819FBA9597D0FF1FE78080EE8145B240E5
:104258002E854101828011469D45E36AE6FE15469A
:10426800198E63F3C7003E862390C6009385C18EDE
:10427800C9BF21469D45E36CE6FC2546198E63F3CC
:10428800C7003E862390C60097F5FF1F9385C58318
:104298004DBF11469D45E36CE6FA1546198E63F34A
:1042A800C7003E862390C6009385418E59BF1146AC
:1042B8009D45E36EE6F81546198E63F3C7003E8602
:1042C8002390C6009385C18DADBF11469D45E3601F
:1042D800E6F81546198E63F3C7003E862390C6009C
:1042E8009385418DB9BF29469D45E362E6F62D4683
:1042F800198E63F3C7003E862390C6009785020097
:10430800938585A23DBF35469D45E362E6F439466F
:10431800198E63F3C7003E862390C6009785020076
:104328009385859F39BF1D461948B285E361E8F238
:10433800198E63F3C7003E862390C60097F5FF1FCA
:10434800938545F7FDBD4111AA851D4617F5FF1F49
:10435800130545F606C6EFE08FECB24041018280B6
:1043680097E6FF1F938686624146CD4517E5FF1FF6
:10437800130585626FE08006411122C4416413056C
:10438800F4FF9385C1C906C626C24AC0EFE0E00F14
:104398001305F4FF9385C1C8EFE0200F97E6FF1FD0
:1043A800938646734146E14517E5FF1F130545739C
:1043B800EFE0C00297E4FF1F93848472CC4C2A89F3
:1043C8000945353B83D701821384C1CA03D7C1810C
:1043D8002312F40083D7A40C2316E40003D7A410F7
:1043E8002310F40083D7A40D9385C1CB0D45231169
:1043F800F40085472303F4002314E4002307F400A2
:1044080023150400ED39A2850D454526B240224406
:1044180092444A850249410182808D67938727A388
:1044280035456306F6048D679387D7A46310F604B1
:1044380089476391F502A14763EAD7024111BA851A
:104448003686138541A006C6EFE06FDDB240014510
:10445800410182808D472945639BF5008547354595
:104468006397F600834707002380F1A00145828007
:104478008D67938727A36302F6028D679387D7A476
:104488000145631DF60089476389F5008D476397E9
:10449800F50083C701A02300F70005452390A60077
:1044A80001458280828082800111930500030D45B9
:1044B80006CEEF809066930500051145EF80F06504
:1044C8009305C0030545EF80506585451306F10047
:1044D80013055030A307B100EFD0E15AF24005614F
:1044E8008280011122CC26CA03A4C1A183C481A160
:1044F8004EC606CE4AC8AA8999E0014405A083574A
:10450800040063873701FD1493F4F40F2104EDB719
:1045180003496400EF100053E317A9FEF240228517
:104528006244D2444249B249056182808547AA85DE
:10453800631AF50003C5C1A21166130686A9894549
:104548006F60703B89476316F50003C5C1A26F60B1
:10455800105C828085476398F50019E22382B1A236
:104568002380C1A2828009EAF91599E503D521A221
:104578002382F1A26F00406B828003A741A1AE871E
:1045880001C7184711C3028701116C001305704059
:1045980006CE22CC3E84EFB0714632462285814554
:1045A800EFC02108F240624405618280411193976F
:1045B800050122C406C6C1872E8463DF070003C530
:1045C800C1A2EF60606A19C1EF60E0622165218DC8
:1045D800B24022444101828093F7150085C303C588
:1045E800C1A217E6FF1F1306666897E5FF1F9385AC
:1045F8002567EFD0411F13451400D9BF13F52500D7
:1046080061D9B93E03C5C1A21166130686A98945B9
:10461800EF60702E1345240065BF797126D24ECE07
:1046280056CA06D622D44AD052CC9147AA84AE8A1A
:10463800938981A26314F50483D7A5001306E100CA
:104648008545130550302391F1A2230701002382E9
:1046580001A2EFD0414383A741A191C7DC4781C79D
:10466800D68526858297B250225423A099000259F4
:104678009254F249624AD24A4561828003A70900EE
:10468800E31BF7FC03D521A28545F53C03D521A200
:104698008545FD2303DA21A2C167F917631BFA02D6
:1046A8000545238201A2EF10603A9305E100130546
:1046B800504123070100EFB071348347E100A1E3C3
:1046C80003C701A29147E318F7F8F93B238001A239
:1046D80059B703A9C1A103C481A179D00355290001
:1046E80011C99305E100EFC0407309C54C455285D7
:1046F800EFD0B0597D141374F40F2109F9BF83A7C3
:1047080001A183C74700898BC5DF9305000A0D45C2
:10471800EF80B0409305000A1145EF8010408145B5
:104728000545EF80903F85451306E100130550309D
:104738002307B100EFD0213561B70111170500003B
:10474800130505E706CE22CCEF6050601384C1A2A2
:1047580085451306F1002300A40013054041A30773
:10476800B100EFC0A1127D55EFB070087D55EFD0B4
:10477800B04EFD36EFF03F92BD2917050000130536
:1047880025DBEFF01F9417050000130505D251290A
:10479800034504006244F240854505616F60607E10
:1047A80023AAB1A023A8A1A0828023AEB1A0238C04
:1047B800A1A0828083A781A2397122DC06DE26DAD5
:1047C8004AD84ED652D456D21144639F870A83C71B
:1047D80041A2D5CF03A4C1A183C481A12A8AB289E9
:1047E800B68A81EC5544F25022856254D25442591B
:1047F800B259225A925A21618280834744006387C2
:104808004701FD1493F4F40F2104E1BF83475400DA
:10481800E399B7FE034964002EC6EF10A022B24503
:10482800E311A9FE0355240093056101EFC0E05E82
:1048380055D94C4503D521A2EFB0D07805895DD173
:1048480003D521A2014781464E86ED4583540400D5
:10485800EFB0B0312ACE4D4459D54E86D685231CAB
:104868009100231D310197D0FF1FE780608C03D58D
:1048780021A201462C08EFC0D0512A842DD5ED4540
:104888002808EFB0504685B709476394E7004144CC
:1048980099BF2C0813055041230C0100EFB01116E5
:1048A8008347810185CB930500020D45EF80F026F3
:1048B800930500032285EF80502695450545EF8036
:1048C800D0258545300813055030230CB100EFD0B2
:1048D800811B75BFD13E65BF411122C406C609447C
:1048E80015E12E848DE503A781A291476316F70091
:1048F80003D521A2EFD0814401468145130500412B
:10490800EFB0D178B24022852244410182806144CF
:10491800D5BF011126CABE84DC414AC84EC652C45E
:1049280056C206CE22CC03C417003A8A03C7070032
:1049380022042E89B28AB689598C63020A020D674D
:104948001307B7A4AD476301E408F2406244D244B8
:104958004249B249224A924A3E8505618280F577EA
:104968009387E75DA29799CFF5779387375BA297EF
:1049780091CBF5779387E75CA297C207C183054778
:10498800636FF7020355A900A93E15C583A741A186
:104998002286624403A8070083455500F240D244AA
:1049A8004249224A03454500D6874E87924AB24972
:1049B80085460561028823900900814779B78D678C
:1049C8009387B7A4631FF402EF1040079D47E37E67
:1049D800AAF6EF10A0063305454163C8A400EF10FE
:1049E800E005B3044541C204C1808325C900239072
:1049F80099002686D295568597C0FF1FE780407399
:104A08006DBF8D679387A7A46318F40011468325AB
:104A1800C9002390C900C5B78D6793878790631431
:104A2800F4000946EDB78D679387E7A4631AF4008D
:104A3800DC452390E60083C707002300F600B5BFD6
:104A48008D6793877790E31AF4F6E1BF011106CEDC
:104A580022CC26CA4AC82317D100631D070EDC41A1
:104A68002E89B28403C4170083C60700F577220491
:104A7800558C9387E75CA29791C7F5779387375B47
:104A8800A29795EB0355A900EFF0BFA535CD83A7F5
:104A980041A1834555000345450003A807001307B6
:104AA800E100A687814622860298F2406244D244F9
:104AB8004249056182808D679387C7A46314F40215
:104AC8000357E10085473545E311F7FE83470600A4
:104AD80013050008E36BF7FC03A741A13E85584383
:104AE80002971DA08D6793872790631AF402835657
:104AF800E1008547EFB050524DF90357A90003A5CF
:104B0800C1A183C781A199E3014545B78356250013
:104B18006384E604FD1793F7F70F2105EDB78D675A
:104B28009387E7A4E312F4FE0357E1008547354570
:104B3800E31DF7F68347060013050008E367F7F659
:104B4800D8453335F00009052300F70003A741A134
:104B5800584379B72D4591BF83A741A183C6140057
:104B68008345550003A8070083C70400A206034530
:104B78004500DD8EFD16B336D0000D66A6871307F7
:104B8800E1008906130626900298BDBF0145828080
:104B980025E3DC41AE8803C8070083C71700A207D6
:104BA800B3E707010D681308F8A4639A0703914750
:104BB80035486390F60403A5C800328E4111368645
:104BC800F28506C697C0FF1FE780805683A781A39A
:104BD80005458297B24001484285410182808D682F
:104BE8009388289029486396170185476FB0D0426B
:104BF8002D484285828041654111938541CC7D15C0
:104C080006C6EFD09008B24097E6FF1F9386C60607
:104C18004146994517E5FF1F1305C50641016FD0A9
:104C2800E07B23ACA1A282800111938541CC22CCE8
:104C380006CE2A84EFB0103905891DCD014781467B
:104C48000546ED452285EFB040722AC615C597E79F
:104C5800FF1F83D7C70801462C002314F10085479E
:104C68002315F100230005002285EFC0901209C525
:104C7800ED452800EFB03007F240624405618280BC
:104C880041677917630CE502411122C42E8706C6D5
:104C980085452A84631AB70022852244B240938549
:104CA80041CC41016FD0607E89476315F700EFF072
:104CB80090327DD1B24022444101828082804111EC
:104CC80022C441641305F4FF938541D006C626C269
:104CD8004AC0EFD0807B1305F4FF938541CEEFD017
:104CE800C07A97E6FF1F9386E6FF4146E94517E538
:104CF800FF1F1305E5FFEFD0606E97E4FF1F938455
:104D080024FFCC4C2A890945EFF06FBF9387C183F4
:104D1800138781838346070003C6170003471700DC
:104D2800138441D183C5070083D7A40CA302C40010
:104D3800A306E400A30AC400A30EE40003D6A41348
:104D480003D7A4162310F40083D7A40D03D5A41009
:104D58002318C400231CE40003D6A41403D701833A
:104D68002311F40085472303F4002306D400230706
:104D7800F4002319C400230ED4002302B400231422
:104D8800A400230AB40023150400230B0400231DE8
:104D98000400230F04002312E40203D7A418938508
:104DA800C1D30D452310E4022303F40223110402A6
:104DB800EFF0EFB4A2851D45EFF03F9FB2402244CB
:104DC80092444A85024941018280AE878D65938568
:104DD80025A36307B6048D659385D5A4631AB60425
:104DE8004111BA8506C6094736866390E702C1476E
:104DF800354563E9D700138541CF97C0FF1FE7808A
:104E080020330145B240410182800D472945E39B8B
:104E1800E7FEC1473545E3E7D7FE138541CDF1BF2E
:104E2800854735456398F60083470700238EF1A22E
:104E38000145828082808D67938727A3630AF608DD
:104E48008D679387D7A4631EF608011122CC26CA62
:104E580006CE8947BA8436846393F5024146938522
:104E680041CF3A8597C0FF1FE780802CC1472310A8
:104E7800F400F2406244D2440145056182808D47C6
:104E88006395F5041305F100A3070100EF00D03383
:104E98000346F100C147AA8563F5C702A307F100DD
:104EA8003E86138541CD97C0FF1FE78060280346E3
:104EB800F100938541CD268597C0FF1FE7804027E5
:104EC80011A065F28347F1005DB72390060055B73E
:104ED80083C7C1A32300F70085472390F600014547
:104EE800828023900600E5BF11456FD01FED411168
:104EF80093962500AA852D4506C697C0FF1FE78013
:104F080080ECB240014541018280011122CC26CAC1
:104F1800939625002A84B284AA850146254506CEA3
:104F280036C697C0FF1FE78000EAB2462686A285EC
:104F3800294597C0FF1FE78000E9F2406244D24448
:104F48000145056182800111B717004006CE22CCC9
:104F580026CA4AC84EC603C4770583C9B70503C91C
:104F6800870583C49705EFD09FB1B717004003C7E3
:104F7800A7059387A705136717002380E70003C7D2
:104F88000700058B6DFFB717004003D5C705A38D34
:104F98003705238C2705A38C9704A38B8704F2403D
:104FA8006244D2444249B2490561828041119397D3
:104FB800050126C206C622C4C187AE8463DE070087
:104FC800EF50904A19C1EF5010432165258DB2402A
:104FD800224492444101828093F7150013C51500BD
:104FE800FDF793972501096463D10702EF60E16B30
:104FF800E53D37F60200130606E003C521A4A285A5
:10500800EF60600F33C58400D9B7116433F58500AC
:105018005DDD13060064D5B71D714946977502001A
:10502800938505E717850200130505F686CEA2CC01
:1050380097C0FF1FE780C01811E101A037F700E013
:10504800795610CBFD5654CBB7E700E0056423A092
:1050580087109306F00214C323A087180F100000CE
:105068001306C0038145480897C0FF1FE780C00F9B
:1050780097F7FF1F938707E63ECA896793870780DC
:10508800231CF100B5472304F102A167938707C0E9
:105098003ECEB7070405938707103ED0ED4723128D
:1050A800F10285472303F10297070000938767E41D
:1050B800BEC497070000938787E5BEC6930714D040
:1050C8002315F10297F7FFFF9387C7DB3EDAB7F5A1
:1050D800070097070000938747E73EDE814697075A
:1050E80000009387A7E07000E1051945BEC097C08E
:1050F800FF1FE78040CD19466C001305E102EFD091
:105108001F92D24789C78357810163F3870001A0A3
:105118004808EF60204711C101A0F64066442561A8
:105128008280411117050000130585E806C622C4D0
:10513800EF60C041138421A42300A400192803456B
:1051480004002244B24013060032896541016F50C1
:10515800907A411106C673270080218B9387819D21
:1051680001CB7327008098C398435D9B7310078019
:105178000F10000037170040130707049306700547
:105188002300D700930680FA2300D7000F100000F1
:10519800B716004003C6F6021376A60FA387C60209
:1051A80023000700F32600809843218B558F731046
:1051B800078023AC019C0F10000073270080218B0F
:1051C80001CB7327008098C398435D9B73100780B9
:1051D8000F100000371700401307070493067005E7
:1051E8002300D700930680FA2300D7000F10000091
:1051F800B716004003C6F60213662600A387C60248
:1052080023000700732700809C43A18BD98F7390DC
:10521800078023AC019C0F1000000545EFD03F929A
:10522800E13105461305407E814701478146B28535
:10523800EFD0FF97B240014541016F6020694111ED
:105248009397050122C406C626C24AC0C1872E8488
:1052580063DF0700EF50502119C1EF50D0192165C5
:10526800218DB24022449244024941018280AA849D
:1052780013F515007DD5170500201305A545EF206A
:10528800D0188945170500201305C544EF2030259F
:105298002A89B145170500201305C543EF2030249E
:1052A800631309069707002083C71745054709E5D3
:1052B8001707002003476744B1C329C383C781A4E4
:1052C80095E783D7A1A48507C207C1832395F1A4D5
:1052D8001307301F637CF700854701468145014568
:1052E8002384F1A4239501A4EFF00FDF41468545FF
:1052F8002685EF50506013451400A5B7239501A4E7
:10530800238401A4E5B7854745D54DBF03C7A184CC
:105318009307F00F6312F7024111170500001305F8
:1053280045F206C6EF608022B2402385A18441463B
:10533800854541016F50305C828003D5C1828280EF
:1053480003C531828280A381A1828280138541991D
:1053580082800145828003D58184828003C5F183E0
:105368008280A38FA18282804111CD472306F1005C
:10537800B24517E5FF1F1305A5B44101828041110D
:10538800B5472306F100B24517E5FF1F130505B120
:10539800410182801385C1988280239E01A4238FB6
:1053A80001A4170600201306E63281479385C1A59C
:1053B80051480347660193D6370093F87700AE96B5
:1053C8003317170183C806008507050633671701D9
:1053D8002380E600E39F07FD8D472300F5004CC1BD
:1053E80023040500828003D5E185828003C5F18608
:1053F8008280A387A18682804111D1472306F100CC
:10540800B24517E5FF1F130565AA410182804111C6
:10541800B1472306F100B24517E5FF1F130545A75D
:105428004101828085476304F50035458280014546
:1054380082806FF05FA06FF05F996FF05F886F00F8
:10544800B0446F00B03E6F00B02D011122CC97051B
:105458000020938525282A840A8506CE26CAEF20AF
:1054680090089384C1D541468A852685EFD02FDBE5
:10547800414685472300C4002304F40044C0F24099
:1054880022856244D244056182807971138581FE48
:1054980006D622D4EF50F253B70705031384C1D6BA
:1054A800938727101CC0F177938797412312F40044
:1054B8008D472303F400930715002A86A303F400FD
:1054C8002AC6A547938581FE138551D72304F40086
:1054D800EFD0EFD43246B250228522542506230E4F
:1054E800C100A38FC1A4F2454561828001111385D3
:1054F80081FE06CEEF50F24DF24005052306A100CD
:10550800B245138581FE056182806FE07FF66FE00A
:10551800DFF06FE07FE6239801A41706002013064A
:10552800661B01478146977802009388A8D61D43D9
:10553800154E938E21A5054F4948834746008DC7D0
:10554800B387160183C7070085C39385070293F5C0
:10555800F50F636DB30283C501A5938707F2B317EF
:10556800FF00CD8F2388F1A485060506E39706FD85
:105578009547938601A563D3E702A1472300F50069
:10558800938701A55CC1230405008280E347EEFEF2
:10559800B305D7012380F5000507F9B73306D7000F
:1055A800230106000507C1BF1385C1988280131720
:1055B80085016187FD57635EF7229377F5070145FB
:1055C800638B0722FD1793F7F70F11476365F722DF
:1055D80017770200130787C28A07BA979C43797125
:1055E80006D6BA9722D426D24AD04ECE52CC56CA24
:1055F8005AC88287938701EA0144C14603C78714C2
:1056080009C705048507E31BD4FEBD4426868145EA
:105618001385D1D4EFD0AFBF8D472386F1D419C8F5
:10562800228663F384002686938581FE1385D1D470
:10563800EFD0EFBEC14741A083A701EA35468145B7
:1056480013DB270113D9070113DA370193D4470174
:1056580093DAC70193D987011385F1D4F58313F43D
:105668001700EFD0CFBABD8885472386F1D41379C8
:105678003900137A1A0093B7540093F97900060990
:105688000E0A1387B4FFFD17137B1B00336949010A
:10569800F98F86091204920793FA1A00336969018F
:1056A800B3E989003369F900B3E95901A38621D523
:1056B800238731D58D47B2502254238CF1A49254BC
:1056C8000259F249624AD24A424B054545618280F5
:1056D8008547014463FAC70003C41500CD47137416
:1056E800E40F63F387000144138701EA931744002A
:1056F800BA97130841000147280091468C473306A2
:10570800E80091072300B600CC4B3306E5000507F7
:105718002300B600E314D7FE1D468145138551D5F5
:10572800EFD0EFAE89472386F1D4A38681D483577F
:1057380041002397F1D4835761002398F1D483570C
:1057480081002399F1D48357A100239AF1D4A94762
:105758009DB7280002C423160100EF40A03C23AAED
:1057680001D423AC01D4A24683A701EA23A6D1D44D
:105778008356C10013D7B701E183058B9D8B23980E
:10578800D1D42389E1D4A389F1D46DB513071100CD
:1057980034005000930521000A8523000100A3006E
:1057A8000100231101002312010023140100EF005E
:1057B800307A03440100035A2100835941000359F8
:1057C8008100834411001D468145138551D5EFD0D2
:1057D8000FA49547333480002386F1D4A38681D45F
:1057E800239741D5239831D5239921D5238A91D45C
:1057F800B9BF0145828082806386051C6304051C4D
:10580800011122CC26CA06CEAA842A8603C5050021
:105818002E84EFF0DFD905E5834704001307000263
:10582800638AE70A6364F7060D476385E718636EC2
:10583800F7000547638BE70C09476384E716F240D6
:105848006244D2440145056182801147E399E7FE2D
:105858000A85EF40202D2C000A85EF40602265D193
:105868002146930514003305C100EF50920561F9F4
:10587800138501EA1C4137070008D98F1CC1EF10B6
:105888006013138501EAEF10800955BF1307300232
:10589800638AE7066369F700130710026391E70656
:1058A800EF00703F69BF1307F00FE39AE7F813851D
:1058B80001EAEF102010138501EAEF1040061305E6
:1058C800400697B0FF1FE780E03D97B0FF1FE780D5
:1058D8006028B5B78947014663FC9700F914268606
:1058E800C204C180B94763F397003E8642064182ED
:1058F8000345140093052400EF00B03F89B7EF007B
:10590800304E35BFEF00B0611DBF034714009386CA
:1059180001EA9C423706F8FF7D16218B4207F18F7A
:10592800D98F9CC203471400370610FF7D161183D8
:1059380015073D8B5207F18FD98F9CC2034714007E
:105948003706FDFF7D16198B3E07F18FD98F9CC254
:10595800034714003706FCFF7D16058B4A07F18FB5
:10596800D98F9CC203472400370600F07D16058BAB
:105978007207F18FD98F9CC203472400370600E0D5
:105988007D16418B6607F18FD98F9CC2034724008F
:10599800370600F97D16398B5E07F18FD98F9CC2C7
:1059A80079BD8345140013062400138501EAEF002E
:1059B800B07E71B5414693051400138581FEEF5002
:1059C800A272B5BD3545828083C781A5B9EB0111A7
:1059D80022CC2A84280006CE02C423160100EF40F8
:1059E800601423AA01D423AC01D4A24683A701EAF8
:1059F80023A6D1D48356C10013D7B701E183058B01
:105A08009D8B2398D1D42389E1D4A389F1D401C4EF
:105A1800C1472300F400F24062441385C1D40561F4
:105A2800828019C12300F5001385C1D4828003A5A3
:105A3800C1A4828083A7C1849C43828783A7C18431
:105A4800DC47828783A7C1849C4B828783A7C18454
:105A5800DC4B828783A7C184DC43828783A7C18408
:105A68009C47828783A7C18441119C4F410182874B
:105A780083A7C1844111DC4F4101828783A7C18478
:105A88009C538287411123A6A1A406C68547630FAC
:105A9800F50089476303F502976702009387C77C7F
:105AA80011C9E93FB24041016FE0FF8997670200E1
:105AB8009387C77823A6F184EDB797670200938789
:105AC8002775CDBF83A7C184011106CEDC532AC632
